:1000000000308A00272800000A108A100A1182078F
:10001000C034F934A434B034993492348234F8348E
:100020008034983423308400831300080319262871
:100030000130F800F701F70B1B28F80B1A284A309B
:10004000F700F70B21282428800B18280800030844
:100050001F39830083161F149F141F159F118313CC
:100060008312A101A201003083168600850083124D
:1000700085100514A2012208093C031C5A28A1017D
:100080002108093C031C5828051485102108042068
:10009000A30086003230A300122085140510220828
:1000A0000420A30086003230A3001220A10A4028B9
:0800B000A20A3B283A28630074
:02400E00793FF8
:00000001FF
;PIC16F876
;CRC=56CC  CREATED="10-jul-16 17:23"
