:1000000000308A00A32800000A108A100A11820713
:10001000313432343334343435343634373438349C
:1000200039342A34303423348A110A12B628F701BD
:10003000F8012A0803102B18F707F70CF80CAB1877
:10004000F707F70CF80C2B19F707F70CF80CAB199E
:10005000F707F70CF80C2B1AF707F70CF80CAB1A8C
:10006000F707F70CF80C2B1BF707F70CF80CAB1B7A
:10007000F707F70CF80C0800A801A00A2008213C9B
:1000800003189A28230803194C28013A0319522807
:10009000033A031958285D28DE3083168600831240
:1000A00086005D28BE3083168600831286005D2898
:1000B0007E308316860083128600211C692806087C
:1000C0001E391E3C031D682821102208A800A20129
:1000D000992806081E391E3C03199428060802397F
:1000E000031D7428A901882806080439031D7B28EC
:1000F0000130A900882806080839031D822802302B
:10010000A900882806081039031D88280330A90093
:100110002908AA000330AB00172023087807042021
:10012000F800A20021149928A30A2308033C03190C
:10013000A301A001FE308316860083122808F80070
:100140008A110A12BA2803081F39830083161F1464
:100150009F141F159F1183138312A0012110A20168
:10016000A3013030A500A601A7011428831681132E
:1001700083123C287808A400A408031DC128250880
:10018000A40024082A3C0319C9282408233C031D81
:10019000CB283030A4002408A5003030A4021C3045
:1001A000AA002408AB0017207808A6002608FF3C08
:1001B000A700A6080319E228831605108312051468
:1001C000A603D928A7080319EB2883160510831264
:0A01D0000510A703E228B928630018
:02400E00713F00
:00000001FF
;PIC16F876
;CRC=6783  CREATED="11-jul-16 14:04"
