:1000000002308A00852A00000A108A100A1182072D
:10001000313432343334343435343634373438349C
:1000200039342A34303423340A108A100A118207F2
:1000300028340C34013406340C28D2274E2A4F17AA
:100040002E1700000C10C330F21EA53100000C105A
:10005000C330F21EA53A000C0C10C330F21EA53AB4
:1000600000010C28D2274E2A4F172E1700002C30E3
:1000700084008313000803194B280130F800F701AE
:10008000F70B4028F80B3F284A30F700F70B4628BB
:100090004928800B3D280800330EF039F7000F3057
:1000A000060577048600000006145628061008008E
:1000B0000608F700060E0F39F80008008316061030
:1000C00086100611831286100F3083160605F0384D
:1000D00086008312061500000614000058207808D8
:1000E000B300061000000614000058207808B20083
:1000F00006100F308316060586008312330EF700B4
:10010000F030F70577083204F8007808B200B21B27
:100110006428301C86103018861400000611000078
:100120000610310EB2000F30B2053208B3004C2079
:1001300031080F39B200B3004C2008000F3083168D
:100140000605860006108610061183128610061119
:1001500006100F30AC0037200130A6002608033C03
:10016000031CBA280330B3004C200530AC00372004
:10017000A60AAE280230B3004C200530AC00372070
:10018000A6012608033C031CCE2826081420A7003D
:10019000B0012708B1005E20A60AC1288A110A1200
:1001A000942A8A110A12952A2D0BD728DA28403072
:1001B000AE00DB28AE0101302C02AE072E088038DD
:1001C000AF00B0012F08B1005E2008002B08073AED
:1001D0000319F4280B3A0319F928063A03190129DF
:1001E000023A031907290C290130AC00AD00D420D4
:1001F0001129B0010130B1005E200230AC0037207F
:1002000011290130AC000230AD00D4201129B00119
:100210001030B1005E2011290130B0002B08B10070
:100220005E2008000B08A6008B13831603178C179B
:100230000C140000000083120C087F39031959299F
:100240000313A70003170D080313A80003170F08D3
:100250000313A9002708AB00E620280803178D0028
:100260000313290803178F0083168C170C14000042
:10027000000083120C0D0E0D7F3903195929031349
:10028000A70003170D080313A80003170F08031393
:10029000A9002708AB00E620280803178D000313E8
:1002A000290803178F008D0A03198F0A03131529D4
:1002B00003170313A61B8B170800A601A00A20082A
:1002C000213C0318DE29230803196D29013A03197B
:1002D0007329033A031979297E29DE3083168600B3
:1002E000831286007E29BE30831686008312860024
:1002F0007E297E308316860083128600211C8A297F
:1003000006081E391E3C031D892921102208A6005B
:10031000A201DD2906081E391E3C0319D82906084A
:100320000239031D9529A701A92906080439031DCF
:100330009C290130A700A92906080839031DA32913
:100340000230A700A92906081039031DA929033086
:10035000A7002708A8000330A900F701F801280822
:1003600003102918F707F70CF80CA918F707F70C72
:10037000F80C2919F707F70CF80CA919F707F70C6F
:10038000F80C291AF707F70CF80CA91AF707F70C5D
:10039000F80C291BF707F70CF80CA91BF707F70C4B
:1003A000F80C230878070420F800A2002114DD29A6
:1003B000A30A2308033C0319A301A001FE308316FE
:1003C000860083122608F8008A110A12A02A0B0858
:1003D000A7008B13831603178C170C140000000062
:1003E0000318192A83120C087F390313A800031776
:1003F0000D080313A90003170F080313AA00280808
:10040000AB00E620290803178D0003132A08031701
:100410008F0083168C170C14000000008312031346
:10042000A60B132A162A83160317192A382A8316AD
:10043000031783120C0D0E0D7F390313A800031749
:100440000D080313A90003170F080313AA002808B7
:10045000AB00E620290803178D0003132A080317B1
:100460008F008D0A03198F0A03100313A60BEA29C4
:10047000A71B8B1708002908F80128020318432A34
:100480002808F7004F2AF7010830AA00A80DF70D39
:10049000290877020318F700F80DAA0B462A08006E
:1004A00078082608A8006430A9003B227708A60037
:1004B00078083030031D632AA71C6A2AA7196A2A04
:1004C000271A2030662AA71127122714F807780860
:1004D000AB00E6202608A8000A30A9003B227708D6
:1004E000A60078083030031D7B2AA7197F2A271C15
:1004F0007F2A271A2030F8077808AB00E620303032
:10050000A6072608AB00E620080003081F39830071
:1005100083161F149F141F159F1183138312A001AC
:100520002110A201A3019E28D128831681131C301B
:10053000831203178D0000308F00031312215D29F1
:100540007808A40030302402A500A4080319012B68
:1005500024082A3C031DB02A0C30AB00E620012BF6
:100560002408AB00E6200230A600FA30AC003720A9
:10057000A60BB52A223003178D0000308F00031020
:1005800006300313A600E7212408AB00E620023062
:10059000A600FA30AC003720A60BC92A2730031773
:1005A0008D0000308F00031006300313A600E721F2
:1005B0002408A6001B30A70050220230A600FA3003
:1005C000AC003720A60BDF2A2C3003178D0000303B
:1005D0008F00031006300313A600E7212508A600AC
:1005E0001B30A70050220230A600FA30AC003720A2
:1005F000A60BF52A313003178D0000308F0003134E
:0606000012219F2A630095
:02400E00793FF8
:00000001FF
;PIC16F876
;CRC=A6DD  CREATED="11-jul-16 00:04"
