:1000000002308A00922A00000A108A100A11820720
:1000100028340C34013406340A108A100A1182077D
:10002000313432343334343435343634373438348C
:1000300039342A34303423340C22E933693A6510D8
:100040006110F43263366110310500000C22E9338F
:10005000693A65106110F43263366110A53A0A00FE
:100060000C286F39F430A030E232723AE11000010E
:100070008C296537E830A03272396132E110000016
:100080003930840083130008031954280130F80024
:10009000F701F70B4928F80B48284A30F700F70B0F
:1000A0004F285228800B46280800400EF039F700F0
:1000B0000F30060577048600000006145F2806103E
:1000C00008000608F700060E0F39F800080083162E
:1000D000061086100611831286100F30831606054F
:1000E000F038860083120615000006140000612017
:1000F0007808C0000610000006140000612078088F
:10010000BF0006100F308316060586008312400ECE
:10011000F700F030F70577083F04F8007808BF00D3
:10012000BF1B6D283D1C86103D188614000006116B
:10013000000006103E0EBF000F30BF053F08C00094
:1001400055203E080F39BF00C000552008000F3071
:100150008316060586000610861006118312861087
:10016000061106100F30B90040200130B2003208ED
:10017000033C031CC3280330C00055200530B900E0
:100180004020B20AB7280230C00055200530B9001F
:100190004020B2013208033C031CD7283208042057
:1001A000B300BD013308BE006720B20ACA288A1115
:1001B0000A12A92A8A110A12AA2A3A0BE028E3286D
:1001C0004030BB00E428BB0101303902BB073B08CB
:1001D0008038BC00BD013C08BE006720080038081C
:1001E000073A0319FD280B3A03190229063A0319A5
:1001F0000A29023A0319102915290130B900BA0059
:10020000DD201A29BD010130BE0067200230B9008F
:1002100040201A290130B9000230BA00DD201A2925
:10022000BD011030BE0067201A290130BD0038081A
:10023000BE00672008000B08B2008B13831603175B
:100240008C170C140000000083120C087F3903196E
:1002500062290313B30003170D080313B400031737
:100260000F080313B5003308B800EF203408031754
:100270008D000313350803178F0083168C170C1499
:100280000000000083120C0D0E0D7F390319622946
:100290000313B30003170D080313B40003170F086B
:1002A0000313B5003308B800EF20340803178D009E
:1002B0000313350803178F008D0A03198F0A0313E0
:1002C0001E2903170313B21B8B170800B201A00AE3
:1002D0002008213C0318E729230803197629013A4D
:1002E00003197C29033A031982298729DE308316F2
:1002F0008600831286008729BE308316860083120B
:10030000860087297E308316860083128600211C92
:10031000932906081E391E3C031D9229211022082C
:10032000B200A201E62906081E391E3C0319E12984
:1003300006080239031D9E29B301B22906080439B3
:10034000031DA5290130B300B22906080839031D91
:10035000AC290230B300B22906081039031DB229B6
:100360000330B3003308B4000330B500F701F801DF
:10037000340803103518F707F70CF80CB518F70711
:10038000F70CF80C3519F707F70CF80CB519F70747
:10039000F70CF80C351AF707F70CF80CB51AF70735
:1003A000F70CF80C351BF707F70CF80CB51BF70723
:1003B000F70CF80C230878070C20F800A200211491
:1003C000E629A30A2308033C0319A301A001FE3078
:1003D0008316860083123208F8008A110A12BA2A9C
:1003E0000B08B4008B13831603178C170C14000032
:1003F00000000318222A83120C087F390313B5006A
:1004000003170D080313B60003170F080313B700F3
:100410003508B800EF20360803178D00031337089E
:1004200003178F0083168C170C1400000000831232
:100430000313B30B1C2A1F2A83160317222A412AEF
:100440008316031783120C0D0E0D7F390313B500AD
:1004500003170D080313B60003170F080313B700A3
:100460003508B800EF20360803178D00031337084E
:1004700003178F008D0A03198F0A03100313B30BA0
:10048000F329B41B8B178A110A12D32A3608F801F4
:10049000350203184E2A3508F7005A2AF7010830AA
:1004A000B700B50DF70D360877020318F700F80D01
:1004B000B70B512A080078083308B5006430B6003D
:1004C00046227708B30078083030031D6E2AB41C2A
:1004D000752AB419752A341A2030712AB4113412CD
:1004E0003414F8077808B800EF203308B5000A3054
:1004F000B60046227708B30078083030031D862AFC
:10050000B4198A2A341C8A2A341A2030F807780849
:10051000B800EF203030B3073308B800EF208A115D
:100520000A12D82A03081F39830083161F149F1448
:100530001F159F1183138312A0012110A201A30193
:10054000A401A5013730AF003230B0003330B10024
:10055000A728DA28831681138312AB011C300317F6
:100560008D0000308F0003131B212B08023C031C5D
:10057000DC2A66297808AA00AA080319DB2A2C308D
:100580002B07840083132A088000AB0A01302B0755
:10059000B200263003178D0000308F00031010309A
:1005A0000313B300F0293208B3001B30B4005B2AF8
:1005B0000A30B800EF20B52A2F082C02031DFF2AAD
:1005C00030082D02031DFF2A31082E02031DFF2AC9
:1005D000303003178D0000308F0003131B2183166A
:1005E0000510831205140230B200FA30B900402021
:1005F000B20BF52A83160510831205100D2B383027
:1006000003178D0000308F0003131B210430B2004C
:0E061000FA30B9004020B20B082BAD2A63006F
:02400E00713F00
:00000001FF
;PIC16F876
;CRC=E31F  CREATED="11-jul-16 00:57"
