:1000000000308A0035280000FF00030E8301A100A4
:100010000A08A0008A010408A2007708A300780853
:10002000A4007908A5007A08A600831383120B1E8A
:100030001B288B182C28220884002308F70024088A
:10004000F8002508F9002608FA0020088A00210E89
:100050008300FF0E7F0E09008A110A122F288030BC
:1000600086068B108A110A121B2803081F39830089
:10007000271083161F149F141F159F11831301301F
:100080008600831286138316811383120B16831640
:0C0090000117C03083128B044C28630061
:02400E00713F00
:00000001FF
;PIC16F876
;CRC=62C0  CREATED="11-jul-16 19:08"
