:1000000001308A00822900000A108A100A11820732
:1000100028340C3401340634CC3264103100CC3234
:1000200064103200CC326410330028308400831313
:100030000008031929280130F800F701F70B1E28E2
:10004000F80B1D284A30F700F70B24282728800BCF
:100050001B2808002F0EF039F7000F300605770433
:100060008600000006143428061008000608F70071
:10007000060E0F39F80008008316061086100611C8
:10008000831286100F3083160605F038860083121F
:10009000061500000614000036207808AF00061090
:1000A00000000614000036207808AE0006100F305D
:1000B00083160605860083122F0EF700F030F70531
:1000C00077082E04F8007808AE00AE1B42282C1CDE
:1000D00086102C18861400000611000006102D0E44
:1000E000AE000F30AE052E08AF002A202D080F39C4
:1000F000AE00AF002A2008000F30831606058600E8
:1001000006108610061183128610061106100F3095
:10011000A80015200130A2002208033C031C9828E7
:100120000330AF002A200530A8001520A20A8C2831
:100130000230AF002A200530A8001520A2012208B5
:10014000033C031CAC2822080420A300AC012308B4
:10015000AD003C20A20A9F288A110A129029290B7F
:10016000B228B5284030AA00B628AA0101302802DA
:10017000AA072A088038AB00AC012B08AD003C2050
:1001800008002708073A0319CF280B3A0319D42887
:10019000063A0319DC28023A0319E228E72801305D
:1001A000A800A900AF20EC28AC010130AD003C2034
:1001B0000230A8001520EC280130A8000230A90068
:1001C000AF20EC28AC011030AD003C20EC28013011
:1001D000AC002708AD003C2008000B08A3008B13DF
:1001E000831603178C170C140000000083120C08F0
:1001F0007F39031934290313A40003170D080313CF
:10020000A50003170F080313A6002408A700C120A8
:10021000250803178D000313260803178F00831684
:100220008C170C140000000083120C0D0E0D7F398A
:10023000031934290313A40003170D080313A500A1
:1002400003170F080313A6002408A700C1202508E0
:1002500003178D000313260803178F008D0A031957
:100260008F0A0313F02803170313A31B8B1708002F
:100270000C30A700C120220803194529013A0319AF
:100280004D29033A031955295C290C3003178D00B9
:1002900000308F000313ED205C290F3003178D0011
:1002A00000308F000313ED205C29123003178D00FE
:1002B00000308F000313ED2008002208003A0319D4
:1002C0006829013A03197029033A031978297F290B
:1002D00020112008831687000430831287067F29A7
:1002E000A0102008831687000230831287067F291A
:1002F00020102008831687000130831287068A1198
:100300000A12B62903081F398300FF30A0008316A4
:100310001F149F141F159F1183138312A1017C28A2
:100320002108A2003821831605148312051CA72971
:10033000A10A0230A2009630A8001520A20B9B292A
:100340002108023C031CA1012108A20038218316C8
:1003500085148312851CB6290230A2009630A800AD
:100360001520A20BAE292108A2005D299329630064
:02400E00713F00
:00000001FF
;PIC16F876
;CRC=1FB1  CREATED="10-jul-16 20:35"
